:20000000E43F00203997000001CA011001CA011001CA011001CA011001CA011001CA0110A5
:1C00200001CA011001CA011001CA011001CA011001CA011001CA01103FCA011082
:20003C001FB58DF80C002448016824480088E0B123480068014218D022480068014204D1FD
:20005C0021480068008801420FD0224840F21153046800930CA201929DF80C001C4B02902F
:20007C001A881A4B186804A3A047032003A9012209F076FB00901FBD50726F6A6563745A56
:20009C0065726F2E6300C0462843422920474150205374617465206368616E67653A202573
:2000BC00642C2053656E64696E67206D736720746F206170702E00C07CD20000C0D2000013
:2000DC00400500003C0500004405000098D200008405000090D20000014B062209F0C7BCF0
:0400FC0099B40000B3
:200100003C000000000000000000000034010000000000000000000001000000000000006D
:1C01200000000000000000000000000001000000000000000800000000000000BA
:20013C00340000000000000000000000680100000000000000000000010000000000000005
:14015C00010000000000000000000000080000000000000086
:2001700030000000000000000000000098010000040000000000000001000000FFFFFFFFA5
:10019000FF00000001000000080000000000000057
:2001A0002C0000000000000000000000C4010000040000000000000001000000FFFFFFFF4D
:0C01C000FFFFFFFF08000000000000002F
:2001CC0034050000E401000099A1011095A70110A5C2011009B2011045B80110000000000B
:0801EC00000000002D000000DE
:2001F400280000000000000000000000140200000000000000000000FFFFFFFF00000000B1
:080214000800000000000000DA
:20021C00300500003002000069C201106DC101101FC2011095BA011000000000000000008E
:04023C002F0000008F
:20024000300500005402000075C20110A9B601109DBF011049B601100000000000000000DE
:04026000300000006A
:200264002400000000000000000000008002000000000000000000000000000008000000CC
:040284000000000076
:20028800240000000000000000000000A40200000000000000000000000000000800000084
:0402A8000000000052
:2002AC00240000000000000000000000C8020000000000000100000000000000080000003B
:0402CC00000000002E
:2002D00000000000782E002004000000000000000000000020000000700100003000000083
:2002F0001C020000802E00200400000000000000000000000C0000003004000018000000A6
:2003100040020000882E002004000000000000000000000024000000480400001800000029
:2003300000000000902E002004000000000000000000000010000000A00100002C000000EE
:20035000CC010000982E00200400000000000000000000002000000064020000240000002C
:20037000FFFFFFFFA02E0020040000000000000000000000280000008802000024000000A9
:20039000FFFFFFFFA82E0020040000000000000000000000580000003C010000340000008E
:2003B000FFFFFFFFB02E0020040000000000000000000000100000006004000018000000A3
:2003D000FFFFFFFFB82E00200400000000000000000000001C000000AC0200002400000019
:2003F000FFFFFFFFC02E002004000000000000000000000038000000F4010000280000008A
:20041000FFFFFFFFC82E002004000000000000000000000054000000000100003C00000025
:1804300018000000000000000000000040040000080000000000000050
:1804480018000000000000000000000058040000080000000000000020
:18046000180000000000000000000000700400000800000000000000F0
:080478000200000044D2000064
:0404800030BF7047D2
:040484000100000073
:0404880000000E0F53
:04048C0000003E0F1F
:040490003200000036
:040494000200000062
:04049800042D00200F
:04049C00000200005A
:0404A00091B0000017
:0404A40001CA011078
:0404A8000000000050
:0404AC00000000004C
:0404B0000800000040
:0404B4000000CE1165
:0404B800982C00205C
:0404BC00010000003B
:0404C000FC2D0020EF
:0404C400080000002C
:0404C8000000000030
:0404CC00000000002C
:0404D0000000000028
:0404D4000000000024
:0404D8000000000020
:0404DC00010000001B
:0404E000642D002067
:0404E400060000000E
:0404E800010000000F
:0404EC00002C0020C0
:0404F0000000000008
:0404F4000000000004
:0404F80000020000FE
:0404FC0000000000FC
:02050000704742
:020502002900CE
:020504000100F4
:020506002400CF
:020508002F00C2
:02050A003000BF
:02050C002D00C0
:02050E000100EA
:0105100001E9
:080514000300000010D20000FA
:08051C000000000000000000D7
:040524000000A10D25
:040528000000BB0D07
:04052C0087C401106F
:04053000380500008A
:040534003805000086
:0405380000000000BF
:04053C0080610000DA
:0405400080610000D6
:0405440000000000B3
:04054800FC2D002066
:04054C0081B1000079
:040550002000000087
:040554006CD1000066
:0405580058D0000077
:04055C000DC30110BA
:0405600017870000F9
:04056400CB98000030
:0405680099C801101D
:04056C009BC8011017
:040570000000000087
:0405740028B60000A5
:040578008CCE000025
:04057C00A4CE000009
:0405800074CE000035
:020584000280F3
:020586000380F0
:02058800421718
:02058A0001006E
:01058C00016D
:040590000000000067
:040594000000000063
:04059800000000005F
:04059C00000000005B
:0405A00035B0000072
:0405A4000D9A0000AC
:0405A80059AC00004A
:0405AC00719C00003E
:0405B000C18A0000FC
:0405B4006DA0000036
:0405B8005D81000061
:0405BC0045AD000049
:0405C000918C00001A
:0405C40011C8011049
:0405C80021C8011035
:0405CC000800000023
:0405D0002400000003
:0405D400180000000B
:0405D80028000000F7
:0405DC0020000000FB
:0405E0003C000000DB
:0405E4000C00000007
:0405E80034000000DB
:2005EC002DE9F04FADF1940D01F082F8874804888748D0F80080874800681D9008EA0007A1
:20060C008548129700681E9008EA000783481397076883480588834800681590A4480068E1
:20062C001690A4480068014617901D98014018911E9817990140A0480068199101461A9095
:20064C001D9801401B911E981A9901401C919D499A4806681194A031A6481F9100F59A714B
:20066C00B0392091964810908DA1149108200A241099ADF820004FF0FF33ADF822400968D6
:20068C00099308A888470028F0D10020082410990F900923ADF830400968ADF832300CA849
:2006AC008847DDF838A00028CDF83CA040F01A819048BDF8341080880124102940F00C812A
:2006CC00BDF83610884240F0078151460A884FF6FF73934200F0A880A1460C78913C77D045
:2006EC001F3C40F090805446119A6178162942D020797E2826D07F2811D0131C62D0129B19
:20070C00002B5FD0139B1BB9388818EA000F59D040F29D40009078A30193207910E0002AF6
:20072C0050D0129B002B4DD0139B1BB9388818EA000F47D04FF493600090A8A301932089E0
:20074C00414610E01799002A3CD0189B002B39D0199B13B93888014234D040F2934000902D
:20076C008FA30193207A0290DDF858C0149B15982A46E04726E01A99AAB11B9B9BB11C9BCE
:20078C0013B93A8811420ED040F27A40B3A30090DDF858C001932079149B029015982A4644
:2007AC00E047544880886288C1B2104608220AF0B7F938B9484605F07BF94E484FF0000915
:2007CC00046120E0217904F108000AF099FB1AE048780E2817D1119CACB1129C9CB1139CF7
:2007EC001CB9388818EA000F0DD040F25D40BDA4DDF858C0149B0090002241460194159823
:20080C0002922A46E0474C4666E0C046C0D200007CD20000400500003C0500004405000014
:20082C008405000098D200004888000954D331480269002A50D040782E49401C4870508870
:20084C001179083209F0A0FA8146B9F1160F06D02848284900698988B9F1040F34D1119B00
:20086C001A99002B38D01B9B002B35D01C9B13B93888014230D01F4840F2D2420069009272
:20088C00C1A3019300791B4A02905078039000220492149B0592159806922A46B0471BE0E4
:2008AC0050726F6A6563745A65726F2E6300C04690D2000078D2000080D2000094D20000BA
:2008CC00402A0020441F00204088C9B200220AF027F9484605F0ECF80F9B1BB114B1504648
:2008EC000AF0E6F90348C0680AF094FE00287FF4BDAE14E0B01E0020526563657669656405
:20090C002047415454204D6573736167652E204F70636F64653A2030782530327800B248F3
:20092C00C0680AF073FE219002461199007A14460934002800F0BF81401E00F0E580401EFB
:20094C0000F0B480401E00F08483401E53D0401E40F082830B1C1DD0129BDBB1139B1BB92F
:20096C00388818EA000F15D0A378002B0CBFBDA0BFA040F2B3210091ADA3019300220290B9
:20098C0011460392149B0491159805922A4606914146B047208800210A4609F0BDF95BE34C
:2009AC00466C6F7720636F6E74726F6C2076696F6C617465642E204F70636F6465206F665D
:2009CC00206F6666656E64696E6720415454206D73673A2030782530327800C04D545520F4
:2009EC0053697A65206368616E67653A2025642062797465730002F1090411B3129B03B379
:200A0C00139B1BB9388818EA000F1AD020780D2814BF99A09BA06378002B0CBF9CA1A1A129
:200A2C0040F22E32009280A3019300220290149B03911598049211460591414606922A4619
:200A4C00B04723780D3B2ED05B1E40F0058301200146641C224602F0B1FCFDE24F75746714
:200A6C006F696E67205246204649464F2066756C6C2E2052652D7363686564756C652074DB
:200A8C0072616E736D697373696F6E206F66206D73672077697468206F70636F6465203072
:200AAC0078253032780001210020D2E7208841F21011401A0FD0103809D0203840F0CC828C
:200ACC0020796188641D224603F016FDC4E220796188641DBEE720796188621D04F0A2F9BB
:200AEC00BAE2C04648434920436F6D6D616E6420436F6D706C657465204576656E74207288
:200B0C00656365697665640023880FF2582E0FF2682C9FA2B3F5895328D0103B40F09C82D7
:200B2C00B4F8050048B1401E04D0401E08BFCDF888E003E0CDF888C000E022922079012835
:200B4C0040F08A82002900F08782129C002C00F08382139C24B9388818EA000F00F07C8211
:200B6C00229940F20940C1A4ACA2ACE1B4F8050010B3401E04D0401E08BFCDF88CE01CE0FB
:200B8C00CDF88CC019E0C0465265747279696E67206D6573736167652077697468206F7005
:200BAC00636F6465203078253032782E20417474656D70742025640023922479B4B1641EB8
:200BCC0040F04A82002900F04782129C002C00F04382139C24B9388818EA000F00F03C8291
:200BEC004FF46B70BFA212E0B01E0020002900F03382129C002C00F02F82139C24B93888F5
:200C0C0018EA000F00F0288240F2A130AFA297A4B0A3239900900194029303920491002477
:200C2C00059422460692B6E1257320257300C046426F6E644D67722052657175657374650B
:200C4C00642070617373636F64652E205765206172652025732070617373636F64652025E1
:200C6C0030366400446973706C6179696E6700C053656E64696E6700427574746F6E203135
:200C8C0000C046C0427574746F6E203000C046C01B5B33336D72656C65617365641B5B30BC
:200CAC006D00C0461B5B33326D707265737365641B5B306D00C0208841F21012801A00F01D
:200CCC001781203800F0AE80103840F0C581A178864A601D07F0F2FD04F1050BDDF8449042
:200CEC002479002C5DD0641E40F0B681DDF874A05FEA090400F0B081129CCCB1139C1CB9FA
:200D0C00388818EA000F13D0784940F22F40A5A40090ABA30194AEA20293002415980392AA
:200D2C00149B049122460594414606922A46B047B9F1000F00F0908118EA0A0F00F08C810A
:200D4C001E9818EA000F04D1388818EA000F00F083819BF80040002C0CBF9FA09FA040F2AC
:200D6C0039410CE1496E6469636174696F6E7320656E61626C6564004E6F74696669636173
:200D8C0074696F6E7320656E61626C656400C0464E6F74692F496E642064697361626C6551
:200DAC006400DDF874A0B9F1000F00F05581129CCCB1139C1CB9388818EA000F13D04B4964
:200DCC0040F21E4077A400907DA30194A9A20293002415980392149B049122460594414605
:200DEC0006922A46B047B9F1000F00F0358118EA0A0F00F031811E9818EA000F04D1388870
:200E0C0018EA000F00F028819BF80040002C0CBF71A072A04FF4856119E1C0465374726568
:200E2C00616D00C02379002B2ED05B1E40F01481002900F01181129B002B00F00D81139B66
:200E4C0023B9388818EA000F00F006814FF4777000908FA3019360790290A0790390E07972
:200E6C000490002205921146069194E043434344204368616E6765206D73673A20257320CB
:200E8C0025733A20257300C01F980021282207F0E5FA1F98641D2722214606F0C5FE119CB6
:200EAC00002C00F0D980129C002C00F0D580139C24B9388818EA000F00F0CE80934940F2E9
:200ECC00D53038A470A28DA3A4E6C046425554544F4E3000427574746F6E205365727669A2
:200EEC00636500C0425554544F4E3100441F0020A178209A601D07F0E1FC04F1050BDDF8D0
:200F0C0044902479002C6BD0641E40F0A580DDF874A05FEA090400F09F80129CCCB1139CEE
:200F2C001CB9388818EA000F13D0794940F26B301CA4009051A3019425A202930024159887
:200F4C000392149B049122460594414606922A46B047B9F1000F7FD018EA0A0F7CD01E9800
:200F6C0018EA000F03D1388818EA000F74D09BF80040002C0CBF18A018A040F275315BA35B
:200F8C00009156A4019402930390002204921146059114460694149B15982A464146B0471A
:200FAC005AE0C04656616C7565204368616E6765206D73673A2025732025733A202573007F
:200FCC0054455354205365727669636500C046C04C45443100C046C06F6666006F6E00C06A
:200FEC00DDF874A0B9F1000F36D0129CCCB1139C1CB9388818EA000F13D0454940F25A3090
:20100C00444C00901DA301941AA20293002415980392149B049122460594414606922A46C4
:20102C00B047B9F1000F17D018EA0A0F14D01E9818EA000F03D1388818EA000F0CD09BF833
:20104C000040002C0CBF344834484FF459711FA396E7507A02F04AFE082005241099ADF866
:20106C002800219BADF82A4009680B930AA8884738E4C0464C45443000C046C04C454420FF
:20108C005365727669636500537472696E6700C056616C7565204368616E6765206D736772
:2010AC003A204461746120536572766963652053747265616D3A20253032783A2530327841
:2010CC003A253032782E2E2E00C046C01B5B33316D4C4544301B5B306D00C0465475726E6D
:2010EC00696E6720257320257300C0461B5B33326D4C4544311B5B306D00C046446174614F
:20110C00205365727669636500C046C0E41F0020341F0020B00F0000E40F0000E80F0000CD
:20112C002DE9F04F064640F29421012541F22D00ADF10C0DC4F22231C4F2090040F81D5C65
:20114C0008680028FCD043F6AC7E46F2440AC020C5F2000EC4F20C0AF4464AF8440CDEF823
:20116C000890DCF8041046F25620C4F20800890807D271460A686FF00F0E4EEA124101706C
:20118C0001E07221017041F28C38C5F2000858F8D41CC1F304611629A8BF203962469268AE
:2011AC0012175118491C11F10A0FB8BF6FF0090100232C4625EAD96201F01F01C4F2203338
:2011CC0041F4F851018324EA996E1A60002EC3F808E073D058F83C1CC1F38360C1F38F27B5
:2011EC005FEA994167D249F3072CBCF1000F29D549F307214A42B1F1FF3F4FEA620215DA02
:20120C007F0805D1400806BF281C2F1C4FF6FF777F080CF1010C05D1400806BF281C2F1C0B
:20122C004FF6FF77521E0CF1010CE9D1490809D37F0805D1400806BF281C2F1C4FF6FF77D2
:20124C000CF1010CBCF1000F35DDBCF1020F4FEA6C020CF001031DDB4FF6FF717F0047F0E2
:20126C000107B94207D2400040F001000F2892BF2F1C0F200F1C7F0047F00107B94207D256
:20128C00400040F001000F2892BF2F1C0F200F1C521EE3D1002B0EDD7F004FF6FF7147F0FF
:2012AC000107B94207D2400040F001000F2892BF2F1C0F200F1C47EA004703E040F6FF77A1
:2012CC00C0F20F070AF05AF839460022002808BF2A1C48F20007C4F20C0738680028FCD07A
:2012EC004AF20800C4F20C0001613D600AB10AF04BF8002E08BFD82109D058F83C1C58F826
:20130C003C0CC1F3870100F0030041EA002188B2009040F2FF3200232C214AF20000C4F26F
:20132C000C0007F010FE002E1ABF58F8100CC0F30D0B40F2FF3B0AF021F80021002808BFC3
:20134C00291C38680028FCD04AF20800C4F20C00C0F814B03D6009B10AF016F8002E04BFD6
:20136C004FF0000BC6F6880B0DD058F818BC0BF07C420BF47C010BF47C4011430BF0FC0B81
:20138C0008434BEA000B09F0F9FF0021002808BF291C38680028FCD04AF20800C4F20C00D6
:2013AC00C0F80CB03D6009B109F0EEFF002E04BF47F28A6BC0F2680B0DD058F81CBC0BF428
:2013CC007C020BF47C410BF4707011430BF03F0B08434BEA000B09F0D1FF0021002808BFEB
:2013EC00291C38680028FCD04AF20800C4F20C00C0F808B03D6009B109F0C6FF002E3AD045
:20140C0058F8140C43F6AC71C5F200014B68C0F303525B08C0F3034117D243F6AC73C5F235
:20142C0000031B6843F3032C12EB0C0203D4102A02DB0F2200E0002243F30333C91803D465
:20144C00102902DB0F2100E0002141EA021100F47F4200F0F00E0B0400F00F0B222E42EAC3
:20146C0003024EEA02014BEA010B08D300F0804040EA0B0B03E043F6277BC0F2710B09F02F
:20148C007DFF0021002808BF291C38680028FCD04AF20800C4F20C00C0F804B03D6009B112
:2014AC0009F072FF222E26BFD8F80000C0F30070281C4AF2400BC4F20C0B222E4FEA40002D
:2014CC0040F020008BF8090126BFD8F80000C0F34070281C202E40F010008BF809013CBFB1
:2014EC00002001900CD3D8F80C00C20C02F44072800D00F01C0100F0030011430843019041
:20150C0009F03CFF019A0021002808BF291C38680028FCD04AF20800C4F20C0002623D6000
:20152C0009B109F031FF202E26BFD8F80C00C0F301500020222E4FEA400040F060008BF8AD
:20154C000C0126BFD8F80000C0F3C06100216FF07F00222E40EAC1008BF8010126BFD8F875
:20156C000000C0F3455100214FF60040202ECFF6FF7040EA8100ABF89C0105D248F20000F2
:20158C00C4F23F0001900BE0D8F80C000003820D00F47C11920500F4704011430843019074
:2015AC0009F0ECFE019A0021002808BF291C38680028FCD04AF20800C4F20C0002603D60B3
:2015CC0009B109F0E1FE44204FF0880E8BF8C500002E8BF8C7E01ABFD8F80000C0F3C14136
:2015EC00002140F68406C9F3815041F03001C4F28C3600288BF8C81041D0401E07D0401E70
:20160C0037D00420022107F0C4FD00214BE0284609F02AFA04460420214607F0BAFD04203A
:20162C0009F022FA8442FAD143F6AC70C5F2000050F8040C0104090C4AF8081CC0F3074E0C
:20164C004AF804ECCAF8005031680029FCD0002240F2B411CAF80020C1F2000109680B6819
:20166C00000E4FF06022072198474FF48060CBF800000420032107F08CFD002113E00420A2
:20168C00294607F086FD43F2BD704AF8080C4FF086094AF8049CCAF8005030680028FCD04F
:2016AC000021CAF8001058F8200C4BF2700342F22C0E41F22D0C47F6180240F29449C4F209
:2016CC000C0300F03F00C4F2090E8BF8CB0FC4F2090C1A80DEF800004AF8441CC4F260297A
:2016EC004CF81D1C03B0C9F80050BDE8F08F70472DE9F04F0820ADF19C0DADF83000012008
:20170C00ADF83200A44801680CA88847A34CBDF83400A0800E98A060A148DFF89092016825
:20172C00A748DFF8908205882691DDB19D480068014217D09C480068014204D14846006822
:20174C00008801420ED09C484FF4BF7782A306680097002201934746954B02923A88186854
:20176C00BEA3B04704F148060021304609F04AFF04F1600004F16C01E66006F0CFFB8F4F4E
:20178C00A061F8B93968DDB186480068014217D085480068014204D14846006800880142EE
:2017AC000ED0854840F28B1306680093C1A201920023029343461A887D4B1868A7A3B0473F
:2017CC0009F01CFF04F1540004F1780106F0A6FB606100BB3968DDB172480068014217D0A4
:2017EC0071480068014204D148460068008801420ED0714840F2911306680093B6A201928A
:20180C000023029343461A88694B186893A3B04709F0F4FE6069B84909F0BCFDF8B13968C7
:20182C00DDB160480068014217D05F480068014204D148460068008801420ED05E4840F236
:20184C009717DDA306680097002201934746584B02923A88186881A3B04709F0CFFE03A801
:20186C0000212422082309F0C5FEE94F4FF47A7A32260D20DFF894B33A68099003AB04F11E
:20188C00EC00BAFBF2F18AB27243594609F0AEFE0E203968099003AB04F58870BAFBF1F1E5
:2018AC0089B24E433246594609F0A0FE4FF0010A4FF0000B40F205308DF892A00DF192025E
:2018CC00ADF840B0514602F0CDFC40F20630022110AA02F0C7FC4FF442702246514602F035
:2018EC00C1FC04F1A40240F20730112102F0BAFC04F1A406002D76D02A4826990068014253
:20190C0071D029480068014205D148460068269F01880F4267D004F1CA005946202206F026
:20192C009DFD4046224D244B0788D5F8008004F1CA0958461D68325C401CC0B2335C811951
:20194C00092B18BF082B01D11F2A3BDB1218D0B22028F0DB3BE0C046496E697469616C69F9
:20196C007A696E67207468652075736572207461736B2C2068617264776172652C20424C1C
:20198C004520737461636B20616E642073657276696365732E00C046402A0020B01E00203D
:2019AC007CD20000400500003C0500004405000098D200008405000090D2000078D200005F
:2019CC00C0D20000491C521E484606F02DF940F2C91084A6269900903A4620A30196404606
:2019EC00CDF80890A8470620A02108F013FC0720A02108F00FFC0820A02108F00BFC0920A5
:201A0C00A02108F007FC50461E2108F003FCCDF83CB055468DF895B04FF481608DF8935090
:201A2C0004218DF894500FAA8DF8965008F090F94FF4806051460DF1930208F089F940F26E
:201A4C000240514625AA08F083F940F2034051460DF1950208F07CF907E0C04650726F6AC8
:201A6C006563745A65726F2E630040F2064051460DF1960208F06CF94FF0FF3009F0EBFC9D
:201A8C004FF0FF3009F0E1FC09F012FB04F1B5025846152109F016FB207905F01BFF207925
:201AAC0005F09AF9207904F0B1FE207905F06AFF24E0C0464572726F7220696E69746961AD
:201ACC006C697A696E6720626F617264204C45442070696E7300C0464572726F7220696E6F
:201AEC00697469616C697A696E6720627574746F6E2070696E7300C0B56F000004F128000F
:201B0C0004F0C6FB04F1300004F04CF904F1380004F086FA04F1400004F0E4F90DF14200BF
:201B2C005946282206F09AFC3A490DF16A00282206F07AF8584651460DF1420203F072F9B2
:201B4C00504651460DF1420203F06CF9584651460DF1420201F032FC504651460DF14202AD
:201B6C0001F02CFC584628210DF16A0201F080FA504614210DF1420201F07AFA58465146DD
:201B8C000DF1420202F0B8FC504651460DF1420202F0B2FC04F11C0008F022FB04F1200007
:201BAC0008F09AFF207909F04DFC207909F050FC27B0BDE8F08FC0464572726F72207265CD
:201BCC00676973746572696E6720627574746F6E2063616C6C6261636B2066756E6374697B
:201BEC006F6E00C04E616D6520696E20616476657274446174612061727261793A201B5B95
:201C0C0033336D25731B5B306D00C046F187000070D200000DCF00002DE9F04FDFF804A3CB
:201C2C0001200827ADF1540DADF81A00DAF80010ADF8187006A88847BB4CBDF81C00208284
:201C4C00002666700898A0624FF6FF70E08208F07BF94FF00109B046C34D20703246334688
:201C6C002946CDF8008004F1A800CDF8049007F0E9F90221CDF800803246334604F1CC00BB
:201C8C000191294607F0DEF90421CDF800803246334604F1F0000191294607F0D3F9042041
:201CAC00A070C1481022314606F0D8FBBF481022314606F0D3FBBC4A04F12C0BCBF80060C4
:201CCC0004F10A052E70E6710720267210216072022008F055F9B54A0320102108F050F941
:201CEC0004205A46014608F04BF94FF0030B05F13A00109005F17F00119005F12E00129098
:201D0C0005F1600013903435149501E008F0B0FF0A20ADF80A004FF0FF35ADF80870DAF8E9
:201D2C000010039502A88847002840F05D8130460C900925ADF82470DAF80010ADF82650CA
:201D4C0009A88847DDF82C900028CDF8309040F04B81BDF82810208A102940F03981BDF84E
:201D6C002A10884240F034814D462A884FF6FF71914200F025812B78A23B00F005812E3BAC
:201D8C0040F02681A978B046002900F0CF80891E00F0A680491E01297BD9891E4CD0491E15
:201DAC0023D0491E03D0083900F0E080E2E0BA4809F086FB0C984578002D40F0DB80C188B9
:201DCC002184018961844089A084B24809F018FA002840F0CF80656B002D00F0CB802B687F
:201DEC00208C618CA28C9847F2E0A88808F062FE10984146062206F031FB26846684A684A0
:201E0C00A8796073A34809F05BFBA34809F058FB4FF001084FF6FF702379E0824BB9A87932
:201E2C00082814BF042005206070404609F0B0F8A0E084F801B09DE06B78E27A1BBB291DCE
:201E4C0010980B68036089888180062363706889E082E8892084288A6084688AA084E87876
:201E6C00012A207308D11F2007F048FE4FF47A714143884808F014F8E8786A89291D0423FD
:201E8C0007F010FC79E0687831286AD1E670042024E06B78002B64D1A878A18A6278032855
:201EAC0011D0E078257921B9012814BF2671E67005E0054303D0764807F0F2FF6278072ACB
:201ECC00E5D106200AE0062A07D0E578002D08BF84F801B051D0022000E0072060704CE065
:201EEC006B78002B3DD1EB78A2798BB96078022814D0072812D0062802D1207901280DD160
:201F0C00634809F07DF948B9012009F041F805E0119BC0B2414607F011FB68706D7805BB3D
:201F2C0028E0C046402A00207C2300206B78C3B91D4A0220102108F03FF81C4A58461021C1
:201F4C0008F03AF8ED1C129829680160AB88838001226270139B207C6279012107F0EEFA55
:201F6C0058B1677009E0C0469DAF0000A888052109F0D2F9B8F1010F2AD1256B45B3296853
:201F8C0031B36078884723E06879132820D1288901280DD1A07B02280AD13F4809F090FAB8
:201FAC0008F066FE14E0C046C6230020D6230020052007F0A3FD0146374807F071FF07E0CD
:201FCC006888C00B04D3354A0420014607F0F4FF0C98DAF8001038B1ADF81070ADF812B094
:201FEC00CDF8149004A88847608A2579E17842082CD320F0010055EA0103608226D0234830
:20200C0002886DB9E079257A8DF8340014998DF835500B680DF136052B608988A98001E04A
:20202C008DF834B0607AA57A8DF83C000DA98DF83D50D0B2FEF758F838B1256B677025B1BC
:20204C002B6813B1296838468847608A810806D320F002006082304606F0FAFB608AC108EB
:20206C00FFF456AE20F00400A57B60826D1E03D06D1E3FF44BAE4BE601200090618BA28B37
:20208C00E38B208B06F02CFE42E6C0468C23002024240020482400206C240020A82300206F
:2020AC002DE9F04F09AF0C4616461D46ADF13C0D089039880996171CADF8181008BF002030
:2020CC0000F002824FF0000B7F1CCDF838B0EDE1252E40F0D88139787F1C09972D291CBF27
:2020EC000E98ADF8060005D10121781CADF8061039780990302918BF0E9805D109990A4654
:20210C000120521C097809920E9A2A2984464FF0FF36009224D133462A6802930999CDF841
:20212C0010C0D21C0B4622F00302121D5B1C2A6052F8042C09780993002A009218D50123D9
:20214C00ADF806305242009212E0009F099A7B0003EBC703CB18571C303B0997117800938E
:20216C00302901DB3A29F0DBCDF810C0324602922E292CD1099A11782A2902F101020992EB
:20218C0011D129680E9BC91C029321F00301091D296051F8046C002E48BF1E1C1178521CBA
:2021AC003346099212E00E9E33460BE0099A730003EBC60689191346A1F130065B1C11786A
:2021CC0009933346302901DB3A29EFDB029308B1009804906C2905D04C291CBF0E9AADF8FB
:2021EC00042007D1099901230A46ADF80430521C097809920DF1380C0AAFCDF814C00E9A22
:20220C0007976429039200F0AE80692900F0AB80BDF81830752979D0782975D06F2971D084
:20222C0070294AD063293AD073291CD0099F012CA7F10107099714D9A7480068B6F1FF3F83
:20224C0004D0B44284BF761C029600D80294844609A92A466B4608A8E047014603988B44A8
:20226C00BBE01046BAE02868099FC01C20F00300001D286050F8040C002B7F1C014608B9D5
:20228C0093A00146079108F04FFF0390B6F1FF3F00F0A580B042C4BF301C03909FE02868EA
:2022AC00C01C20F00300001D286010F8041C8DF828100127039738468FE00821286804919C
:2022CC00C01C20F00300001D286050F8047C16460EA8824A07F00F01515C3F0906F10106BE
:2022EC0000F8011DF5D1082E06DAC6F108063021761E00F8011DFAD14021461E00F8011C7B
:20230C00604667E0082102E0102100E00A212A68D21C22F00302121D2A6052F8048CB04261
:20232C00BCBF301C04900E9E0EAF8A4681464046514607F005FB6948405CB8FBFAF8B8F187
:20234C00000F06F1010607F8010DF0D1B14506DDA9EB06003021401E07F8011DFAD10598EF
:20236C000797C01B38E02968C91C21F00301091D296051F8041CB042BCBF301C04900EAE14
:20238C0082460F46002958BF914604D57F42A0F1010A4FF02D09904638460A2107F0D0FA12
:2023AC004E48405C0A23B7FBF3F7002F08F1010806F8010DF0D1C24506DDAAEB0800302140
:2023CC00401E06F8011DFAD1B9F1000F18BF06F8019D05980796801B0390099F7F1CBDF820
:2023EC0006600099091A0091BEB911E0012C0DD90898641E30B908F023FF38B1202008F05D
:20240C0017FF03E020210170461C08960BF1010B0098401E0090E9D503980646401E0390E1
:20242C00D6B9BDF80600002840D00098401E00903CD4012C0DD90898641E30B908F000FF63
:20244C0038B1202008F0F4FE03E020210170461C08960BF1010BE8E707994A1C07920E78CC
:20246C00012C0DD9089B641E3BB908F0E9FE10B1304608F0DDFE039802E01E705B1C08931E
:20248C000BF1010BC9E7012C07F101070CD90898641E30B908F0D4FE30B1304608F0C8FE7C
:2024AC0002E00670401C08900BF1010B17F8016C0998002E00F1010009907FF409AE08981C
:2024CC0008B10E99017058460FB0BDE8F08FC046286E756C6C2900C0A4D2000093D10000F2
:2024EC002DE9F84FCF4ED04C06F12D07CB4DDFF83083D7F8EF1F6368D7F8F30F8843C7F86A
:20250C00F30F002BC7F8FF1F00F090816688012B00F04A81DFF86CA3DFF86CB3DFF86C931D
:20252C00022B74D0032B40F0DA810026A06857F8311C66600028A1F5C061B8BF40420A46AD
:20254C00002AB8BF524290422EDA002954BF02206FF00100A26900EB4100032190FBF1F1DA
:20256C008918A161E368606998420BD0B1F11002B8BF524220691038B8BF40428242B8BF1F
:20258C0088B209DB98B20090D64830214FF47F42082306F0D8FC208A0090D24804214FF413
:2025AC00F802122306F0CFFC2846066001688908FCD206605546012746600E202F6004F003
:2025CC00CBFDC9480468EFF3118584F3118859460820B0FA80F00A1AD07F431E0128D377FA
:2025EC0004D14A46106820F00800106085F31188EFF3118384F311880420B0FA80F0091A72
:20260C00C87F421E0128CA7740F0CA80C3E057F8316CB6F5C06F00F08B804FF00309C4F8B8
:20262C00049008F0ABFEB346002600B90126554633462D1F2E68002EFCD0AC4A0126D2F883
:20264C002CA02E600BB108F09FFECAF30720E06008F094FE002300B933461A462B68002BA2
:20266C00FCD0A248D0F800A02E600AB108F08CFECAF38441ABF5C0602161BBF5C06FA060C2
:20268C00B4BF6FF001030223E26803EB400393FBF9F00918104602290FDB1E290BDB3F2821
:2026AC00B9BF521C401C3F22101C62613029B4BF10391F210DE060610BE010F13F0FACBFD4
:2026CC00401E6FF03F00606111F1100FACBF10310021A16180B2009082484FF47F42082386
:2026EC00302106F030FC7F48009604214FF40032112306F028FC208B00907A4804214FF4B1
:20270C00F802122306F01FFC002547F8399C4446256020688008FCD2724829466022052374
:20272C00009106F010FC266020688008FCD367E0002161602846016002689208FCD201606A
:20274C005546012741600E202F6004F005FD66480468EFF3118584F3118859460820B0FA43
:20276C0080F00A1AD07F431E0128D37704D14A46106820F00800106085F31188EFF31183AA
:20278C0084F311880420B0FA80F0091AC87F421E0128CA7704D14A46106820F0040010604A
:2027AC0083F31188BDE8F88F57F8312C02214BF2F52061605043000A36B94D49096821F04C
:2027CC007F414018400801E0002161800835010C2860012669600323AE60444647F8393C76
:2027EC000025256020688008FCD23E48294660220523009106F0A7FB266020688008FCD318
:20280C0047F8216C47F8395C0820C7F8FF0FC7F8F30F47F8396CBDE8F88FC04634600C4060
:20282C0038600C400C400C40C42D0020314800680068014620208847B24641F61D564FF07F
:20284C0002090F2000214FF4C072CAF800000723CAF804602348CDF8009006F074FB4646D9
:20286C0028460125056056F8040C8008FBD32088CAF8105001280BD00020294606F0B4FA9E
:20288C004D462BE004800C40E02E0020342B002040464FF000080C30C0F80080032347F86B
:2028AC00393CC6F8008030688008FCD20D48CDF8009041466022052306F045FB356030682D
:2028CC008008FCD3202047F8210C47F8398C0826C7F8FF6FC7F8F36F47F8395C6560BDE82B
:2028EC00F88FC04600A00C406CD2000004A00C4010200940A00100102DE9F04F09AFADF150
:20290C003C0D1E460025DFF8F891DFF8F881DFF8F8A108903C8838790A92DFF8F0B10B90FD
:20292C00FF200D9008780991022809D10846494640680F88008842F60213834200F0E880A3
:20294C00099806F015F9074649469BA2002F0B880C97994640D07F1E1FD0A8480168D3B1F0
:20296C00A7480068014216D0A6480068014204D140460068008801420DD0A54840F2292758
:20298C00A9A604680097A14B01969F4F02951A883868A1A3A0470A200BE150465F46B9F169
:2029AC00000F4FF0140A0168079707F1040B3FD09348006801423BD092480068014204D197
:2029CC00404600680088014232D092484FF40973076800939BA31DE050465F46B9F1000F66
:2029EC004FF0280A0168079707F1020B20D08448006801421CD083480068014204D140462A
:202A0C0000680088014213D0824840F21623076800938EA30192029308980390049605949E
:202A2C000B987A4B06901A88774B18687AA3B847A24530DD3719BA4521DA70480168B9F183
:202A4C00000F1AD06E480068014216D06D480068014204D140460068008801420DD06C48AB
:202A6C004FF40D73076800937AA20192674B0295654D1A88286868A3B8470D252CE00998C0
:202A8C000A99C0683246201805F0CEF8ABF800700C980D9020E059480168B9F1000F1AD0F3
:202AAC0057480068014216D056480068014204D140460068008801420DD0554840F22F2305
:202ACC00076800936CA20192504B02954E4D1A88286851A3B84707250D98FF280DD00798E1
:202AEC00806850B1076847B1A419A0B200900C9A0A9B089841F23011B847284659E0C046D0
:202B0C00C0D20000440500007CD200007829002050460068002F81462ED03948006819EAE1
:202B2C00000F29D03748006819EA000F05D140460068008819EA000F1ED00B98FE280CBFA8
:202B4C000FF258180FF27018099806F011F8314940F2FB130F6800935AA20192029008984A
:202B6C000390CDF8108029490595274B06950A881868494628A3B8470094032001900999F3
:202B8C000A9A0898334606F0B3F905465846083007686DB967B1786850B1099805F0E8FF9E
:202BAC00009602460A9B7C68089841F23011A047E8B20FB0BDE8F08F5772697465417474F6
:202BCC00724342203A20257320636F6E6E48616E646C6528256429206C656E282564292093
:202BEC006F666673657428256429206D6574686F64283078253032782900C04678D200007F
:202C0C00400500003C05000098D200008405000090D2000094D20000446174615F53657264
:202C2C00766963652E6300C041747472696275746520776173206E6F7420666F756E642E96
:202C4C0000C046C053747265616D00C0537472696E6700C0496E76616C69642076616C75A0
:202C6C0065206C656E677468207761732072656365697665642E00C0416E20696E76616C98
:202C8C006964206F666673657420776173207265717565737465642E00C046C02D2072653F
:202CAC0073746F72696E6720626F6E64656420737461746500C046C02D204F544120777235
:202CCC00697465005772697465417474724342202843434344293A20706172616D3A202513
:202CEC006420636F6E6E48616E646C653A202564202573002DE9F04F09AFADF1440D09901A
:202D0C000C930B920A9138790E9038880D90084605F018FC0F909748DFF86092DFF86082CD
:202D2C00DFF860A2DFF860B299499A4ADFF868E2078838460890FF2010900F9800260FF2AC
:202D4C00882C002859D0401E3CD0401E1FD08A480168D7B148460068014216D040460068DB
:202D6C00014204D150460068008801420DD087484FF416778DA5046800975B460195BB4F74
:202D8C0002961A88386885A3A0470A20EFE03D46084613464024002D0168079303F1060786
:202DAC0057D048460068014253D040460068014204D150460068008801424AD040F25323F3
:202DCC0092A232E03D46084613460124002D0168079303F104073CD048460068014238D0D6
:202DEC0040460068014204D150460068008801422FD040F2452387A217E03D460846134615
:202E0C000124016807939F1C1DB34846006801421FD040460068014204D15046006800883F
:202E2C00014216D040F237237CA2704605680093CDF804C00292099803900C9B04930D9AC7
:202E4C0005920E9B06935B461A88884B186853A3A8470D98844256DD0C9D0FF2C81C2D18A1
:202E6C00AC422FDBAC4219DD0E98182818BF122814D148464049089F00680968002F40D0B8
:202E8C0001423ED040460068014204D1504600680088014235D04FF41B7726E00A980D9BDC
:202EAC00C1680C9A58180B9904F0BEFE0C980B99C2B2012004F0BEFDAC4244DC3D800F9875
:202ECC00109040E02C48089F0168D7B148460068014216D040460068014204D150460068F7
:202EEC00008801420DD040F263272848046800975D46CDF804C05D4B02962A88186827A387
:202F0C00A0470D261FE01C48089F0168D7B148460068014216D040460068014204D15046D5
:202F2C000068008801420DD0184840F25E2746A5046800975B4601954C4F02961A883868C4
:202F4C0016A3A04707261098FF280FD00798806860B1076857B10C990D980F9A0B9B4018EA
:202F6C0080B2009009984FF48A51B847304611B0BDE8F08FC0D2000078D200004005000049
:202F8C003C050000440500008405000090D200007CD20000BC28002094D2000054455354B8
:202FAC005F536572766963652E6300C041747472696275746520776173206E6F7420666FFF
:202FCC00756E642E00C046C05772697465417474724342203A20257320636F6E6E48616E88
:202FEC00646C6528256429206C656E28256429206F666673657428256429206D6574686FBF
:20300C0064283078253032782900C046544553543200C046544553543100C0465445535413
:20302C003000C046496E76616C69642076616C7565206C656E6774682077617320726563E3
:20304C0065697665642E00C0416E20696E76616C6964206F666673657420776173207265AA
:20306C00717565737465642E00C046C098D2000003462DE9F04F8148814DDFF814C2ADF16B
:20308C003C0D0F4600240FF2442EDFF8F891DFF8F8810088DFF8F4B107901E1C0890E86882
:2030AC00099244D0761E20D0BE48079F0168D7B1BD480068014216D048460068014204D190
:2030CC0040460068008801420DD0B9484FF49A7774A6046800975D460196B44F02932A8858
:2030EC0038686CA3A0470220C5E0089B2A1D824605F110010B926046002B4FF014020A9150
:20310C0006680C924FF001030D933FD0A648006806423BD048460068064204D140460068FB
:20312C000088064232D04FF498736FA21BE0089BAA1C604605F124010B9206680D940A91E6
:20314C0028220C9213B39848006806421ED048460068064204D1404600680088064215D081
:20316C0040F2251362A29348D0F800C00093CDF804E0029203972146049105915B4606913E
:20318C008A491A88086843A33146E0470C98B84225DA8448089E0168FEB18348006801421D
:2031AC001BD048460068014204D1404600680088014212D07F4840F24D16056800964EA31F
:2031CC000193029703940C9A04925E460594774B0694186832882FA3A84718244AE00A9847
:2031EC0009993A4604F020FD0D9B0B98002B078040D00798314600282FD06B4800680142E8
:20320C002BD048460068014204D1404600680088014222D05846674B02889AF80270634865
:20322C001E680068002F1BA308BF0FF2041C05D0012F0CBF0FF2141C0FF2281C4FF4A2771D
:20324C0000974DA70197BAF800700297CDF80CC02746049705970697B04706200090564F60
:20326C000A99287805F14C03224601905046029704F0C8F920460FB0BDE8F08FC0D2000002
:20328C00782900203C05000044050000840500007CD20000446174615F5365727669636556
:2032AC002E6300C0536574506172616D657465723A20506172616D657465722023256420FD
:2032CC006E6F742076616C69642E00C0536574506172616D65746572203A202573206C65A3
:2032EC006E3A20256400C04653747265616D00C0537472696E6700C04C656E677468206F17
:20330C0075747369646520626F756E64733A204C656E3A202564204D696E4C656E3A20252A
:20332C0064204D61784C656E3A2025642E00C0461B5B33336D4E6F74692F696E6420646967
:20334C007361626C65641B5B306D00C04E6F74696669636174696F6E20656E61626C656451
:20336C0000C046C0496E6469636174696F6E20656E61626C656400C0547279696E672074BD
:20338C006F2073656E64206E6F74692F696E643A20636F6E6E48616E646C652025782C2047
:2033AC00257300C078D200004005000098D2000090D2000094D20000B94900002DE9F04F91
:2033CC000346C34D7C48DFF8ECC1DFF80CB3DFF80CA3DFF80C93DFF810830F46ADF1340D10
:2033EC0000241E1C0892E9680288286907923CD0761E20D0B7480168171C1AD058460068A9
:20340C00014216D050460068014204D148460068008801420DD0B7484FF4A5776CA60468E7
:20342C00009745460196AF4F02932A88386863A3A0470220BBE00B90AB1D6046A91C002A40
:20344C000A93066809913ED05846006806423AD050460068064204D1484600680088064274
:20346C0031D04FF4A3736BA11AE0002A05F1040360460B9105F101020A930668099222D0E6
:20348C005846006806421ED050460068064204D1484600680088064215D040F23B135FA19E
:2034AC009248D0F800C0009353A2019202910397234604930593414606938A4B0A881868B7
:2034CC0031463EA3E047022F4ADA002F48D0099808993A4604F0A8FB079B0A983146002B86
:2034EC0007802FD05846006801422BD050460068014204D1484600680088014222D04046A7
:20350C007A4B02880B9F77481E68BF7800682BA3002F08BF0FF20C1C05D0012F0CBF0FF204
:20352C00201C0FF2341C4FF4AD7700974FA701970B9F3F880297CDF80CC027460497059727
:20354C000697B0470720009028780190684F02970B98099905F11403224604F053F825E095
:20356C005D465C4B07982A681968061C1DD011421BD050460068014204D148460068008862
:20358C00014212D0594840F263160568009642A30193029701220392049246460594514B8A
:2035AC0006941868328805A3A847182420460DB0BDE8F08F7CD20000C0D200004275747492
:2035CC006F6E5F536572766963652E6300C046C0536574506172616D657465723A205061A3
:2035EC0072616D6574657220232564206E6F742076616C69642E00C0536574506172616D57
:20360C0065746572203A202573206C656E3A20256400C046425554544F4E31004255545448
:20362C004F4E30001B5B33336D4E6F74692F696E642064697361626C65641B5B306D00C039
:20364C004E6F74696669636174696F6E20656E61626C656400C046C0496E646963617469A1
:20366C006F6E20656E61626C656400C0547279696E6720746F2073656E64206E6F74692F63
:20368C00696E643A20636F6E6E48616E646C652025782C20257300C04C656E677468206F3D
:2036AC0075747369646520626F756E64733A204C656E3A202564204D696E4C656E3A202587
:2036CC0064204D61784C656E3A2025642E00C046B02A002078D20000400500003C05000034
:2036EC004405000098D200008405000094D200007947000090D200002DE9F04F09AFADF14F
:20370C003C0D08900B9397F804B00A923F880991084605F05BFAB149DFF8C8A2DFF8C892DA
:20372C00DFF8C882B74B0E8800240546FF2084A2002D0D90B149B2480C953DD06D1E1FD02A
:20374C00A7480168D6B150460068014216D048460068014204D140460068008801420DD0B3
:20376C00A5484FF4F7776FA605680097A14B01969F4F02941A88386866A3A8470A20C5E076
:20378C0000F1040C002E07900968CDF838C03CD050460068014238D048460068014204D1C6
:2037AC0040460068008801422FD0184640F2E9130568009373A319E000F1020C07900968A3
:2037CC00CDF838C00EB35046006801421DD048460068014204D1404600680088014214D086
:2037EC00184640F2DB130568009368A301920293089803900B9A049205977E4BCDF818B0AC
:20380C001A887B4B186843A3A847002F4CD10B9D60A2ED19022D28DACDB9BBF1180F18BF82
:20382C00BBF1120F13D150466D4900680968002E38D0014236D048460068014204D1404693
:20384C000068008801422DD040F202261FE009980A990B9AC068381804F0E6F9002D42D060
:20386C000C980D900E9E35803DE05D480168CEB150460068014215D048460068014204D1BC
:20388C0040460068008801420CD040F2F9165A4805680096574B0192554E02941A883068F9
:2038AC001CA3A8470D241EE04D480168D6B150460068014216D048460068014204D14046DF
:2038CC000068008801420DD04B484FF4FA763AA305680096474E0193454B0294328818681D
:2038EC000CA3A84707240D98FF280ED00798806858B106684EB10B980C9A0A9B3F18B8B29D
:20390C000090089841F21011B04720460FB0BDE8F08FC0464C45445F536572766963652E9E
:20392C006300C04641747472696275746520776173206E6F7420666F756E642E00C046C052
:20394C005772697465417474724342203A20257320636F6E6E48616E646C6528256429200A
:20396C006C656E28256429206F666673657428256429206D6574686F642830782530327831
:20398C002900C0464C45443100C046C04C45443000C046C0496E76616C69642076616C75B6
:2039AC0065206C656E677468207761732072656365697665642E00C0416E20696E76616C4B
:2039CC006964206F666673657420776173207265717565737465642E00C046C0C0D2000084
:2039EC0078D20000400500003C0500004405000098D200008405000090D200007CD20000FF
:203A0C00A42B002094D200002DE9F04F8146B9F1010FADF1140D40F04981A6480068EFF37E
:203A2C00118280F31188AE4D2879012818BF012002D102210020297182F31188012800F047
:203A4C00338107F0CFFD0290A6480668701907F0E1FD00242746009405EB06080197A8B97B
:203A6C00404607F0BBFD0646B068400808D3F0683169024601209047C0B2012800F00D8133
:203A8C00304607F0A7FD0646B045EDD1002F40F0088107F09BFD039004978748076001200E
:203AAC0006F0E2FF012804D1384605F069FF01200090824F386880680146204688478048FC
:203ACC000068B9F1010F40F08A80874E0A36F37903B10124B3790BB144F0020473790BB15A
:203AEC0044F00404DFF8DCB173782BB1B86A006B59460246C88D904733782BB1B86A006B9F
:203B0C0059460246488D90476F4901200860B86A8069014644F0200088476C4A2968DFF832
:203B2C00B4A1106840F001001060480812D2684807F0BAFB8146B9F1040FF8D05146086828
:203B4C0020F003000860B86C4068024660480321904701E001200190049801F031FDB86AB7
:203B6C005749806B09688047019850B9B86C406802465748494690475146086840F0030081
:203B8C00086038688068014601208847524908688009FCD30098012802D1012005F0F0FEF7
:203BAC00B86A4069014620468847B86A406B0146204688470128F8D174782CB1B86AC06A62
:203BCC0059460246C88D9047307828B1B86AC06A59460246488D90473B49012008603B49D5
:203BEC00032208682A7120F001000860404607F011FD049900B101214FF00109081C19D1BE
:203C0C00404607F0EBFC44460646B068C00807D3F0683169024604209047C0B2012806D0FE
:203C2C00304607F0D7FC0646B442EED102E02B48006880472048224FC0F80090386807F0FB
:203C4C00A3FB404607F0E6FC049FD0B9404607F0C5FC46460446A068000907D3E06821695E
:203C6C00024608209047C0B2012806D0204607F0B1FC0446A642EED103E018480068804713
:203C8C00022748462871039807F09CFC04F0B1FE029807F093FC384609E0104800688047ED
:203CAC00022701202871F3E7062000E0022005B0BDE8F08F6CD200000C40094090010010C6
:203CCC002C20094028CE0000282008600C20084000400340242208401410094060D2000079
:203CEC00342B00205CD20000142E00202DE9F04FA849A94EA94DDFF8A8B2DFF8A8A2DFF84D
:203D0C00AC92DFF8AC820C88401E72A7ADF1240D00F09780401E7BD0801E66D0401E50D078
:203D2C00401E30D0401E18D0401E40F0CF803168002C00F0CB802868014200F0C7805A464C
:203D4C001068014205D1524610680088014200F0BD8040F2153063A66CE03168002C00F03D
:203D6C00B5802868014200F0B1805A461068014205D1524610680088014200F0A78040F2B9
:203D8C0009305AA656E040F2153004A902F0E4F904A805F09FFA3168002C00F097802A681D
:203DAC00114200F093805A461268114205D1524612681288114200F089804FF4417652A575
:203DCC0079E03168002C00F08180286801427DD05A461068014204D152461068008801429D
:203DEC0074D040F2113052A624E03168002C6DD0286801426AD05A461068014204D152462D
:203E0C0010680088014261D040F20D304EA611E03168002C5AD02868014257D05A461068CD
:203E2C00014204D152461068008801424ED040F2FA204AA642461468009001960025029542
:203E4C003EE04FF4417006A902F086F99DF818009DF81C208DF810009DF81D108DF8162094
:203E6C009DF819308DF817109DF81B008DF811309DF81A208DF8150008218DF812200020CD
:203E8C008DF8140004AA8DF8130002F033FB06A805F020FA3168CCB12A68114216D05A46D9
:203EAC001268114204D152461268128811420DD040F2F5262CA54246146800960195029098
:203ECC004B46394E1A8830683B46A04709B0BDE8F08FC04650726F6A6563745A65726F2E94
:203EEC006300C0464572726F7200C046436F6E6E656374656420616E6420616476657274B1
:203F0C006973696E6700C046436F6E6E65637465642E205065657220616464726573733AC8
:203F2C00201B5B33326D25731B5B306D00C046C0436F6E6E656374696F6E2074696D656459
:203F4C00206F757400C046C0446973636F6E6E6563746564202F2049646C650041647665D7
:203F6C0072746973696E670047415020697320737461727465642E204F757220616464720B
:203F8C006573733A201B5B33326D25731B5B306D00C046C0C0D200007CD200004005000092
:203FAC003C0500004405000098D200008405000090D200002DE9F04F09AFADF1340D089092
:203FCC000B930A9297F808900991B8883F880C90084604F0B7FA01469748DFF870B2DFF84E
:203FEC0070A2DFF878C2DFF878E20024002906889248DFF86082C5888288438807966ED0F6
:20400C00491E53D0491E1FD08D480168D6B18D480068014216D08C480068014204D1584697
:20402C000068008801420DD08B484FF4FF775DA60568009743460196574602941A8838683C
:20404C0054A3A8470A20A2E003234373012183730722017363461968C2730EB379480068E8
:20406C0001421DD078480068014204D1584600680088014214D0704640F2E913066800932A
:20408C004FA201925DA30293089803900497CDF81490434606941A88534618683DA3B0470F
:2040AC00204601460A4603F0C5FC3EE060460168002E154639D063480068014235D062487F
:2040CC000068014204D158460068008801422CD0704640F2D913066800934AA316E0604629
:2040EC0001681D460EB35748006801421DD056480068014204D1584600680088014214D01D
:20410C0070464FF4E7730668009340A32CA201920293089803900497CDF81490434606940C
:20412C001A88534618681BA3B047BD420EDB0C98ED1B8542D4BFAAB2021C0B9802800998D5
:20414C00C06839180A9803F06FFD1FE03C48079F0168D7B13B480068014216D03A480068C1
:20416C00014204D158460068008801420DD03A484FF4017727A605680097434601965746A2
:20418C0002941A88386803A3A847072420460DB0BDE8F08F544553545F53657276696365C4
:2041AC002E6300C041747472696275746520776173206E6F7420666F756E642E00C046C0E2
:2041CC0052656164417474724342203A20257320636F6E6E48616E646C653A202564206F99
:2041EC0066667365743A202564206D6574686F643A2030782530327800C046C05445535410
:20420C003200C046544553543100C046544553543000C046416E20696E76616C6964206F28
:20422C00666673657420776173207265717565737465642E00C046C0C0D20000BC28002073
:20424C0078D20000400500003C0500004405000098D200008405000090D200007CD2000096
:20426C0094D200002DE9F0410E460146A04DA14814460027A1F201321A2A1CD8DFE812F0CC
:20428C002A0125011E011B00FA00F400DD00CC00C500BE00B600AE00A6001B001B009D0090
:2042AC009000820078006B001B001B001B001B0052001B002600272906DA022E04D108467B
:2042CC00218805F0A7FFCDE002270DE1012E40F003812846C178012900F0EE8002792178A4
:2042EC00017182B9002900F0FF804078012800F0D480042800F0D180062800F0CE80052842
:20430C0000F0CB80F0E02178002940F0ED804178032900F0CD80072900F0CA80052940F03D
:20432C00E380C5E0012E40F0D7802078012840F0D38005F1F00006F063FF50B9384604F0B6
:20434C0087FA071C40F0D0802846CC3007F0B8F8CAE01627C8E0022E40F0BE8021880A2913
:20436C00C0F2BA80B1F5486F00F3B6801E3015E0022E40F0B1802188B1F5FA7F80F2AC8085
:20438C001C300BE0022E40F0A78021880629C0F2A380B1F5486F00F39F801A300180A3E0E9
:2043AC00022E40F0998021880629C0F29580B1F5486F00F391801830F0E7012E40F08C80EE
:2043CC002178022980F288800B300DE0012E40F08380217804297FDA0A3005E0012E7BD150
:2043EC002178082978DA093001707DE0062E73D121683E300160A688868075E0012E6BD1CA
:20440C002178042968DA0830EEE7012E64D12178042961DCC01DE7E7202E5DDA05F189085D
:20442C0039461F22404604F019F821463246404603F0FAFBAE7139460FE0202E4CDA05F1E1
:20444C006A0839461F22404604F008F821463246404603F0E9FB6E710121287C32464346C2
:20446C0005F06CF807463FE0022E35D121882846143093E7012E2FD12846017901291BD034
:20448C00C2782178C17062B900292DD04078012803D0042818BF052826D1012006F078FD64
:2044AC0022E0217801BB4178022918BF05291BD1007C06F06DFE17E0122715E0042E0BD1B4
:2044CC00216828462C3001600EE0102E04D128465A3005E0102E01D0182705E028464A3023
:2044EC002146102203F0A0FB3846BDE8F081C0467C2300207C2300202DE9F04F8646904878
:20450C000F46ADF12C0DDFF84092DFF840A2DFF840B2954D0892924902880FF2B81C4FF043
:20452C0000085FEA0E00079259D0401E3ED0401E21D084480168171C1BD048460068014207
:20454C0017D050460068014204D158460068008801420ED0814840F2431754A60468009751
:20456C007D4D01967B4BCDF808E02A8818684BA3A04702208FE008460168AD1C002A4FF0DA
:20458C00400405F10600099051D04846006801424DD050460068014204D15846006800881B
:2045AC00014244D040F23F1351A22FE00846EE1E002A4FF001040168099638D04846006844
:2045CC00014234D050460068014204D158460068008801422BD040F2371347A216E00846FD
:2045EC002E1F012401680996B51C02B34846006801421CD050460068014204D1584600686E
:20460C000088014213D040F22F133DA2554806680093CDF804C00292039743460493059380
:20462C0006934D4B1A884B4B18681CA3B047BC4201DBBC4228DD079842494D46002809689C
:20464C0028681ED001421CD050460068014204D1584600680088014213D0424840F24F16B6
:20466C000568009628A301930297039404943A4ECDF81480374BCDF818803288186807A360
:20468C00A8474FF0180805E0099808993A4603F0CBFA2F8040460BB0BDE8F08F544553540D
:2046AC005F536572766963652E6300C0536574506172616D657465723A20506172616D65F0
:2046CC0074657220232564206E6F742076616C69642E00C0536574506172616D657465725B
:2046EC00203A202573206C656E3A20256400C046544553543200C046544553543100C04665
:20470C00544553543000C0464C656E677468206F75747369646520626F756E64733A204C47
:20472C00656E3A202564204D696E4C656E3A202564204D61784C656E3A2025642E00C046F5
:20474C00C0D2000078D20000400500003C0500004405000098D200008405000090D200004D
:20476C007CD2000094D20000C02800202DE9F04F804609AF0846ADF1340D0A9397F808B08D
:20478C000992B98808903F880B9104F0C3F906467C497B48DFF8F491DFF8F4A1814ADFF848
:2047AC0008C200240FF2681E002E0588C8888988079538D0761E1FD073480168D5B14846FD
:2047CC000068014216D050460068014204D171480068008801420DD071484FF4EA7745A615
:2047EC00056800976D4B01966B4F02941A8838683BA3A8470A206FE005461046079E0168D3
:20480C00002E37D048460068014233D050460068014204D15F480068008801422AD040F2FF
:20482C00CF134AA214E00D461046079E01680EB34846006801421DD050460068014204D1F6
:20484C00544800680088014214D04FF4E27341A2604606680093CDF804E00292CDF80C80E9
:20486C000497CDF814B04D4B06941A884A4B18681BA3B047BD420EDB0B98E91B8142D4BF85
:20488C008AB2021C0A9802800898C0683918099803F0CAF91FE03C48079F0168D7B1484676
:2048AC000068014216D050460068014204D139480068008801420DD039484FF4ED7727A6BF
:2048CC0005680097354B0196334F02941A88386803A3A847072420460DB0BDE8F08FC0464A
:2048EC00427574746F6E5F536572766963652E6300C046C0417474726962757465207761FD
:20490C0073206E6F7420666F756E642E00C046C052656164417474724342203A20257320A9
:20492C00636F6E6E48616E646C653A202564206F66667365743A202564206D6574686F6463
:20494C003A2030782530327800C046C0425554544F4E3100425554544F4E3000416E206933
:20496C006E76616C6964206F666673657420776173207265717565737465642E00C046C0B5
:20498C00C0D20000B02A002078D20000400500003C0500004405000098D200008405000073
:2049AC0090D200007CD2000094D200002DE9F04F804609AF0846ADF1340D0A9397F808B0F1
:2049CC000992B98808903F880B9104F0D1F806467B497A48DFF8F091DFF8F0A1804ADFF804
:2049EC0004C200240FF2641E002E058888884988079538D0761E1FD072480168D5B1484644
:204A0C000068014216D050460068014204D170480068008801420DD070484FF4E57744A6DA
:204A2C00056800976C4B01966A4F02941A8838683BA3A8470A206FE005461046079E016892
:204A4C00002E37D048460068014233D050460068014204D15E480068008801422AD040F2BE
:204A6C00C51349A214E00D461046079E01680EB34846006801421DD050460068014204D1BF
:204A8C00534800680088014214D04FF4DD7340A2604606680093CDF804E00292CDF80C80AE
:204AAC000497CDF814B04C4B06941A88494B18681BA3B047BD420EDB0B98E91B8142D4BF45
:204ACC008AB2021C0A9802800898C0683918099803F0AAF81FE03B48079F0168D7B1484656
:204AEC000068014216D050460068014204D138480068008801420DD038484FF4E87726A685
:204B0C0005680097344B0196324F02941A88386803A3A847072420460DB0BDE8F08FC04609
:204B2C00446174615F536572766963652E6300C041747472696275746520776173206E6F52
:204B4C007420666F756E642E00C046C052656164417474724342203A20257320636F6E6E29
:204B6C0048616E646C653A202564206F66667365743A202564206D6574686F643A203078CD
:204B8C002530327800C046C053747265616D00C0537472696E6700C0416E20696E76616CF8
:204BAC006964206F666673657420776173207265717565737465642E00C046C0C0D2000092
:204BCC007829002078D20000400500003C0500004405000098D200008405000090D200009A
:204BEC007CD2000094D200002DE9F04F804609AF0846ADF1340D0A9397F808B00992B98835
:204C0C0008903F880B9103F0E1FF06467B497A48DFF8F091DFF8F0A1804ADFF804C200249D
:204C2C000FF2641E002E058888884988079538D0761E1FD072480168D5B148460068014240
:204C4C0016D050460068014204D170480068008801420DD070484FF4D17744A60568009753
:204C6C006C4B01966A4F02941A8838683BA3A8470A206FE005461046079E0168002E37D01F
:204C8C0048460068014233D050460068014204D15E480068008801422AD040F29D1349A216
:204CAC0014E00D461046079E01680EB34846006801421DD050460068014204D1534800683D
:204CCC000088014214D04FF4C97340A2604606680093CDF804E00292CDF80C800497CDF823
:204CEC0014B04C4B06941A88494B18681BA3B047BD420EDB0B98E91B8142D4BF8AB2021C09
:204D0C000A9802800898C0683918099802F08CFF1FE03B48079F0168D7B1484600680142DA
:204D2C0016D050460068014204D138480068008801420DD038484FF4D47726A605680097FD
:204D4C00344B0196324F02941A88386803A3A847072420460DB0BDE8F08FC0464C45445F97
:204D6C00536572766963652E6300C04641747472696275746520776173206E6F7420666F3A
:204D8C00756E642E00C046C052656164417474724342203A20257320636F6E6E48616E64D5
:204DAC006C653A202564206F66667365743A202564206D6574686F643A2030782530327807
:204DCC0000C046C04C45443100C046C04C45443000C046C0416E20696E76616C6964206F25
:204DEC00666673657420776173207265717565737465642E00C046C0C0D20000A42B0020BD
:204E0C0078D20000400500003C0500004405000098D200008405000090D200007CD20000CA
:204E2C0094D200002DE9F04F05460F467B48DFF8F4B1DFF8F4A1DFF8F491DFF8F8817F49EC
:204E4C00ADF12C0D0FF2701C00242E1C089202887C4807923AD0761E20D071480168171C10
:204E6C001AD058460068014216D050460068014204D148460068008801420DD06E4840F271
:204E8C00191743A60468009743460196684F02951A8838683AA3A04702206DE00968051D74
:204EAC00002AA5F10300099035D058460068014231D050460068014204D1484600680088A7
:204ECC00014228D040F2151342A213E00968851C099002B35846006801421CD050460068C7
:204EEC00014204D1484600680088014213D040F20D133AA2524806680093CDF804C0029204
:204F0C000397234604930593069343461A88484B18681BA3B047022F00DA37BB5D46404B9C
:204F2C0007982A681968061C1DD011421BD050460068014204D1484600680088014212D0AD
:204F4C003F4840F225160568009626A30193029701220392049246460594354B069418684B
:204F6C00328807A3A847182405E0099808993A4602F05AFE2F8020460BB0BDE8F08FC046AB
:204F8C004C45445F536572766963652E6300C046536574506172616D657465723A20506191
:204FAC0072616D6574657220232564206E6F742076616C69642E00C0536574506172616D7D
:204FCC0065746572203A202573206C656E3A20256400C0464C45443100C046C04C454430EA
:204FEC0000C046C04C656E677468206F75747369646520626F756E64733A204C656E3A20E2
:20500C002564204D696E4C656E3A202564204D61784C656E3A2025642E00C046C0D20000A7
:20502C0078D20000400500003C0500004405000098D200008405000090D200007CD20000A8
:20504C0094D20000A42B00202DE9F0411C4615468C4208BF854282BF00230022E5E0002C18
:20506C0008BF002D0AD100290EBF00286FF000006FF0000100F0E1F8BDE8F0815FF0000842
:20508C005FF0000E002C08BF8D429CBF2C1C0025070C47EA01470E0CB44208BFBD429EBF5E
:2050AC005FEA044444EA15445FEA0545070A47EA01670E0AB44208BFBD429EBF5FEA0424ED
:2050CC0044EA15645FEA0525470847EAC1774E08B44208BFBD4200F29380870847EA817723
:2050EC008E08B44208BFBD427CD8C70847EA4177CE08B44208BFBD4266D8070947EA0177BD
:20510C000E09B44208BFBD4250D8470947EAC1674E09B44208BFBD423AD8870947EA816711
:20512C008E09B44208BFBD4224D8C70947EA4167CE09B44208BFBD420DD8E60146EA556621
:20514C00EF01B14208BFB84201D3C01BB14158EB08085EEB0E0EA60146EA95664FEA85179F
:20516C00B14208BFB84201D3C01BB14158EB08084EEB0E0E660146EAD5666F01B14208BF2A
:20518C00B84201D3C01BB14158EB08084EEB0E0E260146EA15762F01B14208BFB84201D326
:2051AC00C01BB14158EB08085EEB0E0EE60046EA5576EF00B14208BFB84201D3C01BB14139
:2051CC0058EB08084EEB0E0EA60046EA9576AF00B14208BFB84201D3C01BB14158EB0808E3
:2051EC004EEB0E0E660046EAD5766F00B14208BFB84201D3C01BB14158EB08085EEB0E0EF1
:20520C00A14208BFA84201D3401BA14158EB08085EEB0E0EA34208BFAA423EBF2D0A45EA2A
:20522C000465240A89D3734642461E4617460B46024631463846BDE8F08170472DE9F04FBD
:20524C000D468246DFF89C81694CDFF8A891287809AF9B46ADF1240D0228079207D1404645
:20526C006B680688188842F60211814224D0284603F050FC5C48474601683888D0B15B48F4
:20528C000068014216D02068014204D148460068008801420ED05A48046840F2132734A6DE
:2052AC0000250097554B0196534F02951A8838682AA3A0470A204EE052480068002E804672
:2052CC002BD04A48006818EA000F26D0206818EA000F05D148460068008818EA000F1CD0DC
:2052EC003879FE280CBF29A62FA6284603F012FC454940F201230C6800932EA2019202900D
:20530C00CDF80CA0002104963C4B05913A4E06911A883068414611A3A04738880090032743
:20532C000197079A5B462946504603F0E1FD06463648076876B96FB1786858B1284603F0DF
:20534C00E9FBCDF800B07C68079B02464FF489515046A047304609B0BDE8F08F427574748E
:20536C006F6E5F536572766963652E6300C046C041747472696275746520776173206E6FA1
:20538C007420666F756E642E00C046C02D20726573746F72696E6720626F6E646564207314
:2053AC007461746500C046C02D204F544120777269746500577269746541747472434220A6
:2053CC002843434344293A20706172616D3A20256420636F6E6E48616E646C653A20256418
:2053EC0020257300C0D2000078D20000400500003C0500004405000098D20000840500004B
:20540C0090D200007CD2000094D20000B82A00202DE9F04F694CA068ADF1440D002800F04F
:20542C009D80DFF890914FF00A0B4FF0010A4FF000088FE006F0BEF821785F4BCA0002EB51
:20544C0041129A18B2E8E01007ABA3E8E010E0CAE0C364CA4F1C07F01F0183E8640004F1C3
:20546C000C05627821708A4208BF84F802A006F09DF8BDF82000002808BF2E1C09D0034638
:20548C00A62138A2284605F0DBFA284605F04CFE2E18079FB8B205F02BFC42A20CCA01F05D
:2054AC0033FA42A20CCA01F02FFA04F0B3F8A91B00902EA23B0CA631304605F0C1FA28466A
:2054CC0005F032FE2A18A0682946521B05F09AFFBDF82200E0B106F065F8B9F8007037B91B
:2054EC0009990A9F0346009124A2019720E00A9900910B9F01970C9E02960D9B03930E9A7F
:20550C0004920F9F0597109E0696099B02460FE00B9800900C9F01970D9E02960E9B039382
:20552C000F9A0492CDF81480CDF818800A9B099A2846A62105F084FA284605F0F5FD2A18E3
:20554C000D2002F8010B02F801BBA0682946521B05F058FFA07800283FF46CAF11B0BDE832
:20556C00F08FC04623253036752000C05B2025642E25303375205D2000C046C07B6576743B
:20558C003A20666D743D25702C20617267733D5B307825782C2030782578202E2E2E5D7DA1
:2055AC0000C046C0000000000000F03E0000000000408F408A050000B0190020F818002034
:2055CC00F8B504460020C4F209000068800880F0BB8005F0B9F842F22421C4F208010A68FE
:2055EC00002112F0030F18BF0121D20828BF41F00201002C18BF41F0040141F6DC06C2F276
:20560C00000696F90720821A052A04DAB2798A4208BFB2886FD041F29C340F28A0F10F0206
:20562C00C5F2000424DB02EB02121712072F88BF07273D46062D88BF062554F825C004234F
:20564C00A64603EB85035EF80330CD08A3EB0C0303F0FF0C24BFC3F30725AC448D0824BFB6
:20566C00C3F30745AC444D0805D30CEB136C02E04FF0000C674654F82730CC0803F0FF0541
:20568C0024BFC3F3072425448C0824BFC3F3074425444C0828BF05EB1365A2EB07221FFA7E
:2056AC008CF3534380330022082B88BF012243F6B473C5F200031C681B684FF4D07C34274C
:2056CC005219241703F0FF0307FB14C45C434FF6FF73B4FBF2F2934238BF1A1C802892B272
:2056EC00B28005DA10F1800F03DA6FF07F0000E07F20F071B17142F20800C4F209000168DC
:20570C001F2A4FF00000316008D340F2FF11914206D25208401C9142FBD301E01F22B280F1
:20572C000F3A4FF600714FF0350E1209C8F2A401C4F2090E40EAC2000143CEF8FB1F4FF046
:20574C00000CCEF8FFCFF8BD41F6E2024FF6FD50082141F2300EC2F20002C0F2A400117014
:20576C00C4F2090ECEF80000F8BD70472DE9F04F8346ADF15C0D04F018FD0026012804D1CC
:20578C0005F0B2FB022808BF012654490868C0F38150012805D151F80C1C0120090E884042
:2057AC0006434F494F48504C09780068C0F34600206004F0FAFCA046012818BFD8F80000C7
:2057CC0004D1D8F80000401CC8F80000DFF81CA130B15246FF2107467F1E02F8011BFBD103
:2057EC00DBF80020002702F0FF01FF2919D094465146DE463B4601250CF0FF02904203D999
:20580C0005FA02F4264201D0022064E00CF0FF025EF804CF8B5427435B1C0CF0FF02FF2ADC
:20582C00ECD1092001F02CFC3648002124220823C0F800B001A805F0B1FE4FF0010901AAA4
:20584C0031488DF81C90494605F0A4FED8F8003023B32E4C0025AA4609FA05F0064217D1DF
:20586C00074204BF05F0FF0141F4C04103D01F48405D5BF820101E4801F068FEE8B24FF0F5
:20588C00FF3105F0C1FAD8F80030C4F800A001E0042020606D1C241D9D42DDD30AA800210F
:2058AC003022082305F072FE002410210AAB1148114A009405F066FE104A52F80D0C494603
:2058CC0020F4F85040F4005042F80D0C0C4BC2F8FF1F2046196017B0BDE8F08FB43F00504D
:2058EC00F018002080120840E418002054180020007FC76774180020CD9300000D300940B3
:20590C0008000940EC18002090180020D81700202DE9DF4F6548DFF88CC1DFF874B1DFF847
:20592C0074A1DFF87491DFF87481DFF874E1078856480E1C32A313D10168002F5DD05846FF
:20594C000068014259D050460068014204D1484600680088014250D040F23B572CA62DE0CD
:20596C00012E17D0022E48D1002A46D10168002F43D05846006801423FD050460068014237
:20598C0004D1484600680088014236D040F24C5723A613E0A2B90168002F2ED058460068D7
:2059AC0001422AD050460068014204D1484600680088014221D040F2415725A6002212E02D
:2059CC0039480168CFB158460068014215D050460068014204D148460068008801420CD070
:2059EC0040F2455722A660460468009701967746464602923A883068A0470090BDE8DF8F04
:205A0C0050726F6A6563745A65726F2E6300C04650616972696E672073746172746564008B
:205A2C0052652D65737461626C69736865642070616972696E672066726F6D2073746F7228
:205A4C00656420626F6E6420696E666F2E00C04650616972696E6720636F6D706C6574656B
:205A6C0064207375636365737366756C6C792E0050616972696E67206661696C65642E20A6
:205A8C004572726F723A2025303278007CD20000400500003C0500004405000098D2000010
:205AAC008405000090D2000078D20000C0D200002DE9F04F544C27690346ADF11C0D002F4F
:205ACC0068D05248DFF84CA1DFF84C91DFF84C81DFF84CB1DFF84CC1DFF84CE106882FA2B1
:205AEC003BBB4B490968002E4ED05046006801424AD048460068014204D140460068008874
:205B0C00014241D0704640F2E7460568009627A30193387902906078039000260496634698
:205B2C0005965F4606961E88386813463246A8472AE03E48016816B35046006801421ED086
:205B4C0048460068014204D1404600680088014215D0704640F2EC46056800961EA6019615
:205B6C0038790290039300260496674605965B46069618683E8813463246A84727693979B3
:205B8C0007F1080005F0BCF9206905F091F800202061607007B0BDE8F08FC04650726F6A5B
:205BAC006563745A65726F2E6300C04653656E74206D6573736167652077697468206F70EC
:205BCC00636F6465203078253032782E20417474656D7074202564004761766520757020D9
:205BEC006D6573736167652077697468206F70636F6465203078253032782E20537461748D
:205C0C0075733A20256400C0B01E0020C0D200007CD20000400500003C0500004405000050
:205C2C0098D200008405000094D2000078D200002DE9F0438046D8F80450D8F808600F46F5
:205C4C00ADF15C0D05F0B6FC2978012903D105F0ADFC002096E04FF0010985F8009005F06C
:205C6C00A5FC1FB90DA805F07BF90DAF387868707878A87078686860B868A860F868E860BD
:205C8C0038692861387D2875787D6875B87DA875B869A861387F2877787F00246877B87FA7
:205CAC002C622C63102185F83C10A87727466F626F63AF62AF6385F82C7085F82D7085F8BF
:205CCC003D70307A01F0DCF9404601F07BFB404602F044F878B92D480068C06801463068E5
:205CEC008847307A01F038FA05F064FC2F7005F05DFCB84645E001A839463022082305F0FD
:205D0C0045FCCDF818800094214A716805F1580001AB05F037FC01A824220823394605F051
:205D2C003DFCA8788DF81C9038B905F17400394601AA05F02FFC17482861687838B905F179
:205D4C009000394601AA05F025FC1348E86001A839462422082305F04DFC0697ADF8147027
:205D6C0005F1AC000D49CDF81C800A2201AB05F03DFC05F144000A4A00940421434604F0F4
:205D8C0093FC404617B0BDE8F083C046D0010010CD6E000049B4000041B40000957E0000DC
:205DAC001DB200002DE99E4F4449DFF828C1DFF814B1DFF814A1DFF81491DFF814E1DFF871
:205DCC0018810F8822A300BB3D480168D7B15A461068014216D052461068014204D14A4698
:205DEC001068008801420DD04246146840F217101CA7009000220197674602923A8877464D
:205E0C003868A0470120BDE89E8F3449344C08602168CFB15A461268114215D0524612682A
:205E2C00114204D14A461268128811420CD042464FF489771468009714A7019767460290EB
:205E4C003A8877463868A0470020BDE89E8FC046427574746F6E5F536572766963652E63FB
:205E6C0000C046C04E756C6C20706F696E74657220676976656E20666F7220617070206310
:205E8C00616C6C6261636B732E00C046526567697374657265642063616C6C6261636B73B7
:205EAC0020746F206170706C69636174696F6E2E2053747275637420257000C0C0D2000045
:205ECC0080D20000400500003C0500004405000098D200008405000090D20000B82A00203E
:205EEC007CD200002DE99E4F4349DFF824C1DFF810B1DFF810A1DFF81091DFF810E1DFF8C6
:205F0C0014810F8822A300BB3C480168D7B15A461068014216D052461068014204D14A465B
:205F2C001068008801420DD04246146840F211101BA7009000220197674602923A88774612
:205F4C003868A0470120BDE89E8F3349334C08602168CFB15A461268114215D052461268EB
:205F6C00114204D14A461268128811420CD042464FF486771468009713A7019767460290AE
:205F8C003A8877463868A0470020BDE89E8FC046544553545F536572766963652E6300C036
:205FAC004E756C6C20706F696E74657220676976656E20666F72206170702063616C6C62FA
:205FCC0061636B732E00C046526567697374657265642063616C6C6261636B7320746F20EE
:205FEC006170706C69636174696F6E2E2053747275637420257000C0C0D2000080D20000D5
:20600C00400500003C0500004405000098D200008405000090D20000C42800207CD20000F6
:20602C002DE99E4F4249DFF820C1DFF80CB1DFF80CA1DFF80C91DFF80CE1DFF810810F88BF
:20604C0021A300BB3B480168D7B15A461068014216D052461068014204D14A461068008848
:20606C0001420DD0424614684FF482701AA7009000220197674602923A8877463868A04769
:20608C000120BDE89E8F3249324C08602168C7B15A461268114214D052461268114204D114
:2060AC004A461268128811420BD04246FF271468009713A70197674602903A887746386891
:2060CC00A0470020BDE89E8F446174615F536572766963652E6300C04E756C6C20706F69DD
:2060EC006E74657220676976656E20666F72206170702063616C6C6261636B732E00C046E6
:20610C00526567697374657265642063616C6C6261636B7320746F206170706C6963617434
:20612C00696F6E2E2053747275637420257000C0C0D2000080D20000400500003C0500005B
:20614C004405000098D200008405000090D20000802900207CD200002DE9F04F0C464B4943
:20616C008446ADF13C0D34398A8B487B0992E1460E904A8B48780892A9F540790D900A8B05
:20618C0091F80CE0888C0792CD780C90CA7A488C0692B9F11D0F0B908A7A088C0592CB8A4B
:2061AC000A904A7A91F804800492C88B0A7A8E8A0392CA79D1F82CA002928A798F78019245
:2061CC004A7900954FF0000510D8DFE809F05953514E4C4A484643403E3C3937350F3432E9
:2061EC00302E2D272422200F1D1B1A18BCF1270FA8BF022545DA604603F080FC14E0DDF894
:20620C0038E0F046CDF834800D98059016E00C980B900B980A900A98064620E0443108682C
:20622C0020608888A0802CE00990099808900898079007980690069B238022E005980490E1
:20624C000498039001E03E31E9E7039802900298009006E0019A89310EE06A310CE0304666
:20626C00E2E7009F0CE03831D9E7C4F800A008E05A3100E04A311022204601F0D5FC00E031
:20628C00277028460FB0BDE8F08FC046B02300202DE99E4F4249DFF820C1DFF80CB1DFF860
:2062AC000CA1DFF80C91DFF80CE1DFF810810F8821A3F8B93B480168CFB15A4610680142B2
:2062CC0015D052461068014204D14A461068008801420CD042461468EF201BA7009000226F
:2062EC000197674602923A8877463868A0470120BDE89E8F3249334C08602168C7B15A46BD
:20630C001268114214D052461268114204D14A461268128811420BD04246EA271468009708
:20632C0013A70197674602903A8877463868A0470020BDE89E8FC0464C45445F53657276EE
:20634C006963652E6300C0464E756C6C20706F696E74657220676976656E20666F7220618C
:20636C0070702063616C6C6261636B732E00C046526567697374657265642063616C6C6211
:20638C0061636B7320746F206170706C69636174696F6E2E2053747275637420257000C050
:2063AC00C0D2000080D20000400500003C0500004405000098D200008405000090D20000C9
:2063CC00AC2B00207CD200002DE9FE43002A894607464CBF47F6FF74141C002F08BF0020CE
:2063EC005ED03B88002B30D03C4800882146984229DA3B4A1088984215DA3A4A168826B93E
:20640C0028A2484603F074F81BE03748019100260268CDF8009035490296154618466A4649
:20642C00A847029D12E03248026800E012681AB110898342FAD100E000225268484603F061
:20644C0057F8054602E01CA2DBE70025601B26DD388828B1611B48461AA203F049F84519A0
:20646C00B868E0B1D7F80480661BB8F1000F0DD0404604F059FE401DB04207DC611B4846E9
:20648C0011A2434603F034F84519661B122E06DBBB68611B48460EA203F02AF845192846D7
:2064AC00BDE8FE837B6D6F64756C652D726F70653A25787D00C046C07B6D6F64756C652388
:2064CC0025647D003A2000C0222573222C2000C06C696E652025643A2000C046C4D2000061
:2064EC00C2D200008A050000ACD2000031A40000D82E00202DE9F04790460D46DFF8F09027
:20650C003E4B3F4C3C4F3B4AD9F8001008284FF00006ADF1180D66D8DFE800F05B574844FF
:20652C00403C381005C0072D55D1404681880834A1808779A7710068206055E00420ADF882
:20654C000A0003954FF0080AADF808A002A88847D0B904980746B8B1606804F11701814203
:20656C000AD005214B46ADF802106068ADF800A01968019068468847384641462A4601F0C5
:20658C0053FB676025702FE013262DE0142D22DC14460EE0142D1EDC14460BE0142D1ADCB2
:2065AC003C4606E0142D16DC3C4603E0142D12DC1C46153420463146152201F04FFF20463C
:2065CC0041462A4601F030FB0EE0142D03DC1C46F0E7082D01D0182606E0404641681446A2
:2065EC006A3C6160A7E70226304606B0BDE8F087402A002061270020372700200D27002026
:20660C00E82600202DE9F0430746ADF11C0D04F0B5FF03F0E5FF4FF000090646CDF80C906F
:20662C0004F0CAFE30F0010002D00398B04202D16FF0040066E078684C4658B1B0F1FF3F3C
:20664C0005D004A903F09CFF30B1804659E04FF0FF3000E02046049004F08CFF049D4FF097
:20666C0001082D1802E00A463BE004937068049904F07CFF00282DD0684602F08FFCD8B917
:20668C00BDF8040005A903F093FF88B9BB68BDF81400BDF80610029A984748B1BDF81400CD
:2066AC00BDF80650B881029BFD81C8463B6111E0029903A804F08AF80498641CB0F1FF3F1D
:2066CC00D4D00028D2D004F055FF2B1A02D004989842CAD2039F04F0D3FB06F1080547B16F
:2066EC003A4652F80C1C0029BDD1296842F80C1C2F6004F0B1FC24B1706804F033FF641E6D
:20670C00FAD1404607B0BDE8F083FEE72DE9F04707467E68D7F8089090460C4604F04AFF1C
:20672C00B56A8246002D65D106F1AC0004F016FF34620025F5775046756204F037FF04F0A5
:20674C0039FF314C82462078012804D0042003F06BFC01202070504604F028FF294A106850
